:1000000019C033C032C031C030C02FC02EC02DC087
:100010002CC02BC02AC029C028C027C026C025C09C
:1000200024C023C022C021C020C01FC01EC01DC0CC
:100030001CC01BC011241FBECFEFD2E0DEBFCDBF5E
:1000400011E0A0E0B1E0E2E0F6E002C005900D9220
:10005000AC37B107D9F711E0ACE7B1E001C01D92B0
:10006000A83AB107E1F71AD2CAC2CACF8230A1F0CA
:10007000833028F4882341F08130D1F409C08330E3
:1000800079F08430A9F410C05D985E982F98089597
:100090005D9A5E9A2F9A08955D985E9A2F9A0895B8
:1000A0005D9A5E982F9A08955D985E982F9A0895AC
:1000B0005D985E982F9808958230A1F0833028F4DF
:1000C000882341F08130D1F409C0833079F0843045
:1000D000A9F410C0289829985F980895289A299A19
:1000E0005F9A08952898299A5F9A0895289A2998DE
:1000F0005F9A0895289829985F9A089528982998D2
:100100005F980895CF92DF92EF92FF92CF93DF93A3
:100110006B017C01EA01DC01CB01FF203CF4882764
:100120009927DC018C199D09AE09BF0980509643BF
:10013000A546B44CBC01CD01AE012AE030E01DD291
:100140001C141D041E041F041CF48BE2888302C0CF
:100150008DE28883DF91CF91FF90EF90DF90CF9079
:1001600008950895CF92DF92EF92FF92CF93DF939D
:10017000D82FC92FF62FE72F69017A0160E070E0D0
:100180004F2F5E2FF3D1C701B6014D2F5C2FBADF81
:10019000DF91CF91FF90EF90DF90CF900895E0EC4A
:1001A000F0E0908195FFFDCF8093C6000895CF9336
:1001B000DF93EC018881882329F02196F0DF899173
:1001C0008823E1F7DF91CF9108958AE0E8DF8DE0A1
:1001D000E6DF0895CF93DF93CCE8D1E088E1FE011C
:1001E00011928A95E9F76091810170918201809165
:1001F000830190918401AE012AE030E0BED180E01D
:1002000091E0D5DFCE01D3DFE0DF2091A401309172
:10021000A5014091A6015091A701CE0168E170E0CF
:10022000A1DF8CE091E0C3DFCE01C1DFCEDFDF9143
:10023000CF9108951092C50083E38093C40010927B
:10024000C00088E18093C10086E88093C2000895D1
:10025000279A559A569A579A209A219A0895229A3F
:10026000239A259A24988CB580618CBD8CB58860C2
:100270008CBD8CB584608CBD8CB580648CBD2A9A95
:1002800008952A988EBD0DB407FEFDCF8EB52A9A2B
:1002900008958FEFF6DF80938B018FEFF2DF80936D
:1002A0008B018FEFEEDF80938B018FEFEADF80937E
:1002B0008B018FE19EE40197F1F700C000000895E3
:1002C000CF93DF93D82FC62F80E1DBDF80938B01A4
:1002D0008D2FD7DF80938B018C2FD3DF80938B0101
:1002E000DF91CF91089588E0CCDF80938B0180E887
:1002F000C8DF80938B0181E0C4DF80938B012C9950
:10030000FECF88E0BEDF80938B0180EABADF809366
:100310008B0181E0B6DF80938B012C99FECF08958D
:1003200088E0AFDF80938B0180E0ABDF80938B01AF
:1003300081E0A7DF80938B010895CF932C99FECFA6
:1003400088E59FDF80938B018FEF9BDFC82F8FEFB6
:1003500098DF3C2F20E090E0282B392B822F932F21
:10036000CF910895CF92DF92EF92FF920F931F9358
:10037000CF93DF938C01E1DF6C01EE24FF24023088
:10038000110588F0C1E0D0E0D8DFA0E0B0E0C80EF1
:10039000D91EEA1EFB1EF694E794D794C7942196C3
:1003A000C017D10789F78C2D9D2DDF91CF911F911B
:1003B0000F91FF90EF90DF90CF90089580E190E053
:1003C000D1DF90938A0180938901A0E0B0E0805052
:1003D0009048A040B0409C01B901882777FD8095E6
:1003E000982F2AE73BE840E050E064D00895CF9290
:1003F000DF92EF92FF92CF93DF9380E060E960DFBE
:1004000072DF8EDF10927C0180E056DE8FEF95EA7E
:10041000AEE081509040A040E1F700C00000109293
:100420008101109282011092830110928401C6DF33
:100430006093810170938201809383019093840182
:10044000C0917C01D0E020EA36E841E050E051D094
:1004500069017A01CC0FDD1FCC0FDD1FFE01E45EC8
:10046000FE4F2081318142815381C701B60122D0E4
:10047000C05DDE4F288139814A815B813AD020936B
:10048000A4013093A5014093A6015093A701DF91E9
:10049000CF91FF90EF90DF90CF900895D9DECADE24
:1004A000DEDEF7DE80E061E90BDF1DDF39DF9FDF95
:1004B00091DEFDCF629FD001739FF001829FE00D1E
:1004C000F11D649FE00DF11D929FF00D839FF00DD3
:1004D000749FF00D659FF00D9927729FB00DE11D7F
:1004E000F91F639FB00DE11DF91FBD01CF0111245C
:1004F000089597FB092E05260ED057FD04D014D081
:100500000AD0001C38F450954095309521953F4F06
:100510004F4F5F4F0895F6F79095809570956195D0
:100520007F4F8F4F9F4F0895A1E21A2EAA1BBB1B2E
:10053000FD010DC0AA1FBB1FEE1FFF1FA217B307AF
:10054000E407F50720F0A21BB30BE40BF50B661FC5
:10055000771F881F991F1A9469F760957095809589
:1005600090959B01AC01BD01CF010895DC0101C054
:100570006D9341505040E0F70895FA01CF93FF93F7
:10058000EF9322303CF125322CF5C22FE894CA308B
:1005900049F497FB3EF490958095709561957F4F57
:1005A0008F4F9F4F2C2F332744275527FF93EF93CF
:1005B000BBDFEF91FF91605D6A330CF0695D619381
:1005C000B901CA01605070408040904059F716F45C
:1005D000CDE2C19310828F919F91CF9100C0DC0139
:1005E000FC01672F71917723E1F7329704C07C916A
:1005F0006D9370836291AE17BF07C8F30895F894A6
:02060000FFCF2A
:10060200556164635B6E565D203D20005564766DD6
:100612005B75565D203D2000A0860100C6020000E9
:100622009E0D0000766E0000293C04009E2404000A
:100632000A0000000A0000000A0000000A00000090
:1006420001000000EC03000042130000379C000090
:100652003CFD0500F0DB05000A0000000A00000076
:100662000A0000000A000000010000000065CD1D24
:0C06720000000000008000007A8B0000F7
:00000001FF
