:1000000019C033C032C031C030C02FC02EC02DC087
:100010002CC02BC02AC029C028C027C026C025C09C
:1000200024C023C022C021C020C01FC01EC01DC0CC
:100030001CC01BC011241FBECFEFD2E0DEBFCDBF5E
:1000400011E0A0E0B1E0E8EEF5E002C005900D920D
:10005000A034B107D9F721E0A0E4B1E001C01D92BE
:10006000A836B207E1F705D2BDC2CACF823099F0F7
:1000700028F4882341F0813051F019C0833079F0A1
:10008000843089F014C05D985D982F9808955D9A2A
:100090005D9A2F9A08955D985D9A2F9A08955D9ABA
:1000A0005D982F9A08955D985D982F9A08955D98B0
:1000B0005D982F980895CF92DF92EF92FF92CF93A1
:1000C000DF936B017C01EA01772324F4662777270D
:1000D0006C197D09CB01770FAA0BBB0BBC01CD01BD
:1000E00076538546944C2AE0AE013DD21C141D0483
:1000F0001E041F041CF48BE2888302C08DE28883F7
:10010000DF91CF91FF90EF90DF90CF900895CF9245
:10011000DF92EF92FF92CF93DF93EC0169017A01B6
:10012000AB0160E070E018D2AE01C701B601C3DFD9
:10013000DF91CF91FF90EF90DF90CF900895E0ECAA
:10014000F0E0908195FFFDCF8093C6000895CF9396
:10015000DF93EC018881882329F02196F0DF8991D3
:100160008111FCCFDF91CF9108958AE0E8DF8DE027
:10017000E6DF089588E1E0E5F1E0DF011D928A9570
:10018000E9F76091410170914201809143019091A2
:1001900044012AE0AF01E7D180E091E0D8DF80E5BB
:1001A00091E0D5DFE2DF2091490130914A01409191
:1001B0004B0150914C0168E170E080E591E0A7DFD0
:1001C0008CE091E0C4DF80E591E0C1DFCEDF0895EF
:1001D0001092C50083E38093C4001092C00088E1B0
:1001E0008093C10086E88093C2000895279A559AAB
:1001F000559A0895229A239A259A24988CB580615D
:100200008CBD8CB588608CBD8CB584608CBD8CB584
:1002100080648CBD2A9A08952A988EBD0DB407FE7D
:10022000FDCF8EB52A9A08958FEFF6DF80934F01A8
:100230008FEFF2DF80934F018FEFEEDF80934F015E
:100240008FEFEADF80934F018FE19EE40197F1F792
:1002500000C00000089580E1DFDF80934F0180E05F
:10026000DBDF80934F0181E9D7DF80934F01089551
:1002700088E0D2DF80934F0180E8CEDF80934F018A
:1002800081E0CADF80934F012C99FECF88E0C4DF64
:1002900080934F0180EAC0DF80934F018FE0BCDF85
:1002A00080934F012C99FECF089588E0B5DF8093AD
:1002B0004F0180E0B1DF80934F0181E0ADDF80939B
:1002C0004F010895CF932C99FECF88E5A5DF809349
:1002D0004F018FEFA1DFC82F8FEF9EDF2C2F30E073
:1002E000322F2227A901482BCA01CF910895EF92FE
:1002F000FF920F931F93CF93DF937C01E3DFEC0119
:1003000082E0E816F10468F001E010E0DBDF8C0F1A
:100310009D1FEC01D695C7950F5F1F4FE016F106A4
:10032000A9F7CE01DF91CF911F910F91FF90EF9030
:1003300008952FEF85EA9EE0215080409040E1F73C
:1003400000C0000080E190E0D2DF90934E018093E6
:100350004D01A0E0B0E09058A109B109DC012AE705
:100360003BE8BCD00895CF92DF92EF92FF920F93BB
:100370001F93CF93DF931092400180E077DE1092BD
:100380004101109242011092430110924401D1DFC9
:100390006093410170934201809343019093440123
:1003A0000F2EC12CF5E6DF2EFDECEF2EFDE1FF2E2A
:1003B000F02D1AC080914001853048F0C092410173
:1003C000D0924201E0924301F09244010DC08F5F50
:1003D000809340014BDEADDF609341017093420199
:1003E00080934301909344016091410170914201D7
:1003F00080914301909144018B019C0199233CF42D
:10040000002711279801061B170B280B390B013009
:1004100015462D4C3D4174F60091400110E0000F4F
:10042000111F000F111FE801C85EDE4F20EA36E8F9
:1004300041E050E037D0688179818A819B8123D067
:10044000F801E45DFE4F20813181428153812AD041
:100450002093490130934A0140934B0150934C0142
:10046000DF91CF911F910F91FF90EF90DF90CF9090
:100470000895BCDEADDEBEDED7DEEDDEF9DE15DFD3
:1004800072DF78DEFDCFDB018F939F932DD0BF917C
:10049000AF91A29F800D911DA39F900DB29F900DD3
:1004A00011240895052E97FB16F400940FD057FDE4
:1004B00005D024D007FC02D046F408C050954095E2
:1004C000309521953F4F4F4F5F4F08959095809500
:1004D000709561957F4F8F4F9F4F089531D0B7FF33
:1004E0000895821B930B08952BD0A59F900DB49F68
:1004F000900DA49F800D911D11240895A1E21A2E44
:10050000AA1BBB1BFD010DC0AA1FBB1FEE1FFF1FB7
:10051000A217B307E407F50720F0A21BB30BE40B07
:10052000F50B661F771F881F991F1A9469F760954E
:100530007095809590959B01AC01BD01CF01089508
:10054000A29FB001B39FC001A39F01D0B29F700DC5
:10055000811D1124911D0895DC0101C06D9341504E
:100560005040E0F70895BB272A3051F4992342F414
:10057000BDE290958095709561957F4F8F4F9F4F0D
:1005800001C0BB27FA01A62F6217710581059105ED
:10059000330B30FB66F0AA27660F771F881F991F61
:1005A000AA1FA21710F0A21B63953850A9F7A05DEF
:1005B000AA3308F0A95DA19336F7B111B193108267
:1005C000CA0100C0DC01FC01672F71917723E1F7BC
:1005D000329704C07C916D9370836291AE17BF0710
:0805E000C8F30895F894FFCF61
:1005E800556164635B6E565D203D20005564766DF1
:1005F8005B75565D203D2000EC03000042130000AF
:10060800379C00003CFD0500F0DB05000A000000F7
:100618000A0000000A0000000A00000001000000B3
:00000001FF
