:1000000019C033C032C031C030C02FC02EC02DC087
:100010002CC02BC02AC029C028C027C026C025C09C
:1000200024C023C022C021C020C01FC01EC01DC0CC
:100030001CC01BC011241FBECFEFD2E0DEBFCDBF5E
:1000400011E0A0E0B1E0E6EBF5E002C005900D9212
:10005000A834B107D9F711E0A8E4B1E001C01D92BE
:10006000AA36B107E1F7FBD1A4C2CACF8230A1F012
:10007000833028F4882341F08130D1F409C08330E3
:1000800079F08430A9F410C05D985E982F98089597
:100090005D9A5E9A2F9A08955D985E9A2F9A0895B8
:1000A0005D9A5E982F9A08955D985E982F9A0895AC
:1000B0005D985E982F980895CF92DF92EF92FF920D
:1000C000CF93DF936B017C01EA01DC01CB01FF20C0
:1000D0003CF488279927DC018C199D09AE09BF09DA
:1000E00080509643A546B44CBC01CD01AE012AE038
:1000F00030E01DD2FF201CF08BE2888302C08DE22D
:100100008883DF91CF91FF90EF90DF90CF9008959B
:10011000E0ECF0E0908195FFFDCF8093C60008955C
:10012000CF93DF93EC018881882329F02196F0DFBB
:1001300089918823E1F7DF91CF9108958AE0E8DF84
:100140008DE0E6DF0895CF93DF93C2E5D1E088E14B
:10015000FE0111928A95E9F76091490170914A0177
:1001600080914B0190914C01AE01A6DF80E091E0BF
:10017000D7DFCE01D5DFE2DFDF91CF910895109276
:10018000C50083E38093C4001092C00088E180938F
:10019000C10086E88093C2000895279A559A569A1E
:1001A0000895229A239A259A24988CB580618CBD53
:1001B0008CB588608CBD8CB584608CBD8CB580643A
:1001C0008CBD2A9A08952A988EBD0DB407FEFDCFE6
:1001D0008EB52A9A08958FEFF6DF809351018FEF45
:1001E000F2DF809351018FEFEEDF809351018FEFAB
:1001F000EADF8093510183EC99E00197F1F700C0A9
:1002000000000895CF93DF93D82FC62F80E1DBDF66
:10021000809351018D2FD7DF809351018C2FD3DF35
:1002200080935101DF91CF91089588E0CCDF8093D6
:10023000510180E8C8DF8093510181E0C4DF8093E1
:1002400051012C99FECF88E0BEDF8093510180EAF6
:10025000BADF8093510181E0B6DF809351012C9980
:10026000FECF089588E0AFDF8093510180E0ABDFDF
:100270008093510181E0A7DF809351010895CF93CE
:100280002C99FECF88E59FDF809351018FEF9BDF94
:10029000C82F8FEF98DF3C2F20E090E0282B392BE0
:1002A000822F932FCF910895CF92DF92EF92FF92FA
:1002B000CF93DF93D82FE3DF6C01EE24FF24D230FD
:1002C00078F0C1E0DCDFA0E0B0E0C80ED91EEA1E85
:1002D000FB1EF694E794D794C794CF5FCD1791F7A0
:1002E0008C2D9D2DDF91CF91FF90EF90DF90CF90DF
:1002F000089580E1D9DFA0E0B0E080509048A040B0
:10030000B0409C01B901882777FD8095982F2AE796
:100310003BE840E050E0AFD00895CF92DF92EF92FB
:10032000FF92CF93DF931092480180E09FDE8FEB26
:1003300094EDA1E081509040A040E1F700C00000A2
:1003400010924D0110924E0110924F0110925001E7
:10035000D0DFDC01CB0180934D0190934E01A0933F
:100360004F01B09350010F2EF0E0CF2EF5E6DF2EB7
:10037000FDECEF2EFDE1FF2EF02D25C08091480110
:10038000853048F0C0924D01D0924E01E0924F016D
:10039000F092500118C08F5F8093480167DE8FEBA9
:1003A00094EDA1E081509040A040E1F700C0000032
:1003B000A0DFDC01CB0180934D0190934E01A0930F
:1003C0004F01B093500180914D0190914E01A09149
:1003D0004F01B0915001AC01BD01BB233CF4442757
:1003E0005527BA01481B590B6A0B7B0B413025E698
:1003F00052072DEC62072DE172070CF0BFCFC091C0
:100400004801D0E0BC01CD0120EA36E841E050E0EF
:1004100051D069017A01CC0FDD1FCC0FDD1FFE0129
:10042000E05FFE4F2081318142815381C701B601D7
:1004300022D0CC5DDE4F288139814A815B813AD060
:100440002093490130934A0140934B0150934C0152
:10045000DF91CF91FF90EF90DF90CF9008959DDED8
:100460008EDE9FDEB8DE80E061E9CCDEDEDEFADE25
:1004700054DF69DEFDCF629FD001739FF001829F40
:10048000E00DF11D649FE00DF11D929FF00D839F23
:10049000F00D749FF00D659FF00D9927729FB00DC0
:1004A000E11DF91F639FB00DE11DF91FBD01CF01D3
:1004B0001124089597FB092E05260ED057FD04D070
:1004C00014D00AD0001C38F45095409530952195F1
:1004D0003F4F4F4F5F4F0895F6F790958095709579
:1004E00061957F4F8F4F9F4F0895A1E21A2EAA1B4F
:1004F000BB1BFD010DC0AA1FBB1FEE1FFF1FA217D4
:10050000B307E407F50720F0A21BB30BE40BF50BD0
:10051000661F771F881F991F1A9469F76095709559
:10052000809590959B01AC01BD01CF010895FA0122
:10053000CF93FF93EF9322303CF125322CF5C22F5D
:10054000E894CA3049F497FB3EF4909580957095F5
:1005500061957F4F8F4F9F4F2C2F3327442755276F
:10056000FF93EF93C2DFEF91FF91605D6A330CF070
:10057000695D6193B901CA0160507040804090404C
:1005800059F716F4CDE2C19310828F919F91CF91CC
:1005900000C0DC01FC01672F71917723E1F73297EE
:1005A00004C07C916D9370836291AE17BF07C8F34E
:0605B0000895F894FFCF4E
:1005B6005564766D5B75565D203D2000A086010072
:1005C600EC03000042130000379C00003CFD0500D0
:1005D600F0DB05000A0000000A0000000A00000027
:1005E6000A000000010000000065CD1D00000000AB
:0805F600008000007A8B000078
:00000001FF
